{
  "_format": "hh3-artifact-1",
  "contractName": "MyToken",
  "sourceName": "contracts/MyToken.sol",
  "abi": [
    {
      "inputs": [
        {
          "internalType": "string",
          "name": "_name",
          "type": "string"
        },
        {
          "internalType": "string",
          "name": "_symbol",
          "type": "string"
        },
        {
          "internalType": "uint256",
          "name": "initialSupply",
          "type": "uint256"
        }
      ],
      "stateMutability": "nonpayable",
      "type": "constructor"
    },
    {
      "anonymous": false,
      "inputs": [
        {
          "indexed": true,
          "internalType": "address",
          "name": "from",
          "type": "address"
        },
        {
          "indexed": true,
          "internalType": "address",
          "name": "to",
          "type": "address"
        },
        {
          "indexed": false,
          "internalType": "uint256",
          "name": "amount",
          "type": "uint256"
        }
      ],
      "name": "Transfer",
      "type": "event"
    },
    {
      "inputs": [
        {
          "internalType": "address",
          "name": "",
          "type": "address"
        }
      ],
      "name": "balances",
      "outputs": [
        {
          "internalType": "uint256",
          "name": "",
          "type": "uint256"
        }
      ],
      "stateMutability": "view",
      "type": "function"
    },
    {
      "inputs": [
        {
          "internalType": "address",
          "name": "user",
          "type": "address"
        }
      ],
      "name": "getBalance",
      "outputs": [
        {
          "internalType": "uint256",
          "name": "",
          "type": "uint256"
        }
      ],
      "stateMutability": "view",
      "type": "function"
    },
    {
      "inputs": [],
      "name": "name",
      "outputs": [
        {
          "internalType": "string",
          "name": "",
          "type": "string"
        }
      ],
      "stateMutability": "view",
      "type": "function"
    },
    {
      "inputs": [],
      "name": "symbol",
      "outputs": [
        {
          "internalType": "string",
          "name": "",
          "type": "string"
        }
      ],
      "stateMutability": "view",
      "type": "function"
    },
    {
      "inputs": [
        {
          "internalType": "address",
          "name": "to",
          "type": "address"
        },
        {
          "internalType": "uint256",
          "name": "amount",
          "type": "uint256"
        }
      ],
      "name": "transfer",
      "outputs": [],
      "stateMutability": "nonpayable",
      "type": "function"
    }
  ],
  "bytecode": "0x608060405234801561000f575f5ffd5b506040516106b33803806106b383398101604081905261002e916100fc565b600161003a84826101ed565b50600261004783826101ed565b50335f90815260208190526040902055506102a79050565b634e487b7160e01b5f52604160045260245ffd5b5f82601f830112610082575f5ffd5b81516001600160401b0381111561009b5761009b61005f565b604051601f8201601f19908116603f011681016001600160401b03811182821017156100c9576100c961005f565b6040528181528382016020018510156100e0575f5ffd5b8160208501602083015e5f918101602001919091529392505050565b5f5f5f6060848603121561010e575f5ffd5b83516001600160401b03811115610123575f5ffd5b61012f86828701610073565b602086015190945090506001600160401b0381111561014c575f5ffd5b61015886828701610073565b925050604084015190509250925092565b600181811c9082168061017d57607f821691505b60208210810361019b57634e487b7160e01b5f52602260045260245ffd5b50919050565b601f8211156101e857805f5260205f20601f840160051c810160208510156101c65750805b601f840160051c820191505b818110156101e5575f81556001016101d2565b50505b505050565b81516001600160401b038111156102065761020661005f565b61021a816102148454610169565b846101a1565b6020601f82116001811461024c575f83156102355750848201515b5f19600385901b1c1916600184901b1784556101e5565b5f84815260208120601f198516915b8281101561027b578785015182556020948501946001909201910161025b565b508482101561029857868401515f19600387901b60f8161c191681555b50505050600190811b01905550565b6103ff806102b45f395ff3fe608060405234801561000f575f5ffd5b5060043610610055575f3560e01c806306fdde031461005957806327e235e31461007757806395d89b41146100a4578063a9059cbb146100ac578063f8b2cb4f146100c1575b5f5ffd5b6100616100e9565b60405161006e91906102a0565b60405180910390f35b6100966100853660046102f0565b5f6020819052908152604090205481565b60405190815260200161006e565b610061610175565b6100bf6100ba366004610310565b610182565b005b6100966100cf3660046102f0565b6001600160a01b03165f9081526020819052604090205490565b600180546100f690610338565b80601f016020809104026020016040519081016040528092919081815260200182805461012290610338565b801561016d5780601f106101445761010080835404028352916020019161016d565b820191905f5260205f20905b81548152906001019060200180831161015057829003601f168201915b505050505081565b600280546100f690610338565b5f61018c8261028e565b90506101988183610384565b335f9081526020819052604090205410156101f05760405162461bcd60e51b8152602060048201526014602482015273496e73756666696369656e742062616c616e636560601b604482015260640160405180910390fd5b6101fa8183610384565b335f9081526020819052604081208054909190610218908490610397565b90915550506001600160a01b0383165f9081526020819052604081208054849290610244908490610384565b90915550506040518281526001600160a01b0384169033907fddf252ad1be2c89b69c2b068fc378daa952ba7f163c4a11628f55a4df523b3ef9060200160405180910390a3505050565b5f61029a6064836103aa565b92915050565b602081525f82518060208401528060208501604085015e5f604082850101526040601f19601f83011684010191505092915050565b80356001600160a01b03811681146102eb575f5ffd5b919050565b5f60208284031215610300575f5ffd5b610309826102d5565b9392505050565b5f5f60408385031215610321575f5ffd5b61032a836102d5565b946020939093013593505050565b600181811c9082168061034c57607f821691505b60208210810361036a57634e487b7160e01b5f52602260045260245ffd5b50919050565b634e487b7160e01b5f52601160045260245ffd5b8082018082111561029a5761029a610370565b8181038181111561029a5761029a610370565b5f826103c457634e487b7160e01b5f52601260045260245ffd5b50049056fea2646970667358221220efadea384f3e549440f536d8085a66037055b8e4cb1edb9c127e747624da69e564736f6c634300081c0033",
  "linkReferences": {},
  "deployedLinkReferences": {},
  "immutableReferences": {},
  "inputSourceName": "project/contracts/MyToken.sol",
  "buildInfoId": "solc-0_8_28-f9b2523e0b63127c0ce54e1c2eae7f3c50cb6374"
}